{
  "contractName": "DonateContract",
  "abi": [
    {
      "inputs": [],
      "stateMutability": "nonpayable",
      "type": "constructor"
    },
    {
      "inputs": [],
      "name": "donate",
      "outputs": [],
      "stateMutability": "payable",
      "type": "function",
      "payable": true
    },
    {
      "inputs": [],
      "name": "getTotalDonations",
      "outputs": [
        {
          "internalType": "uint256",
          "name": "",
          "type": "uint256"
        }
      ],
      "stateMutability": "view",
      "type": "function",
      "constant": true
    }
  ],
  "bytecode": "0x608060405234801561001057600080fd5b5033600160006101000a81548173ffffffffffffffffffffffffffffffffffffffff021916908373ffffffffffffffffffffffffffffffffffffffff16021790555061026a806100616000396000f3fe6080604052600436106100295760003560e01c8063777c658f1461002e578063ed88c68e14610059575b600080fd5b34801561003a57600080fd5b50610043610063565b60405161005091906101c7565b60405180910390f35b61006161006c565b005b60008054905090565b6000600160009054906101000a900473ffffffffffffffffffffffffffffffffffffffff1673ffffffffffffffffffffffffffffffffffffffff16346040516100b490610192565b60006040518083038185875af1925050503d80600081146100f1576040519150601f19603f3d011682016040523d82523d6000602084013e6100f6565b606091505b505090508061013a576040517f08c379a0000000000000000000000000000000000000000000000000000000008152600401610131906101a7565b60405180910390fd5b50565b600061014a6014836101ed565b915061015582610208565b602082019050919050565b600061016d6000836101e2565b915061017882610231565b600082019050919050565b61018c816101fe565b82525050565b600061019d82610160565b9150819050919050565b600060208201905081810360008301526101c08161013d565b9050919050565b60006020820190506101dc6000830184610183565b92915050565b600081905092915050565b600082825260208201905092915050565b6000819050919050565b7f4661696c656420746f2073656e64206d6f6e6579000000000000000000000000600082015250565b5056fea26469706673582212204fc1dce3acabbb627f355f972cbeb5b0a56eaf0dbcc5aac53858aeb44852b17c64736f6c63430008070033",
  "immutableReferences": {},
  "source": "// SPDX-License-Identifier: MIT\npragma solidity ^0.8.0;\n\ncontract DonateContract {\n //the code will stay here\n\n  uint totalDonations; // the amount of donations\n  address payable owner; // contract creator's address\n\n   //contract settings\n  constructor() {\n    owner = payable(msg.sender); // setting the contract creator\n  }\n\n   //public function to make donate\n  function donate() public payable {\n    (bool success,) = owner.call{value: msg.value}(\"\");\n    require(success, \"Failed to send money\");\n  }\n  // public function to return the amount of donations\n  function getTotalDonations() view public returns(uint) {\n    return totalDonations;\n  }\n\n}\n",
  "sourcePath": "/Users/nacho/Documents/GitHub_ejemplos/NFT/ERC721 Pulpo -Faztcode -BoreadApeFake OK/contracts/donateContract.sol",
  "compiler": {
    "name": "solc",
    "version": "0.8.7+commit.e28d00a7.Emscripten.clang"
  },
  "schemaVersion": "3.4.3",
  "updatedAt": "2022-03-13T00:46:05.581Z",
  "networkType": "ethereum",
  "devdoc": {
    "kind": "dev",
    "methods": {},
    "version": 1
  },
  "userdoc": {
    "kind": "user",
    "methods": {},
    "version": 1
  }
}